:100000000C942A000C9436000C9434000C943400A8
:100010000C9434000C9434000C9434000C94340090
:100020000C9434000C9434000C9434000C94340080
:100030000C9434000C9434000C9434000C94340070
:100040000C9434000C9434000C9434000C94340060
:100050000C94340011241FBECFE5D4E0DEBFCDBF29
:100060000E9467000C9475000C9400001F920F9280
:100070000FB60F9211242F938F939F93EF93FF93BB
:100080002FE986E891E0215080409040E1F700C0E0
:1000900000009BB38AE02FEF1BBAE7EAF1E6319745
:1000A000F1F700C000002BBBE7EAF1E63197F1F76A
:1000B00000C00000815081F79BBBFF91EF919F91A1
:1000C0008F912F910F900FBE0F901F90189580E287
:1000D00081BB82BB8FEF8ABB1BBA80E48BBF82E0FF
:0E00E00085BF78948FEF8BBBFECFF894FFCFD7
:00000001FF
