:100000000C942A000C9436000C9467000C94340075
:100010000C9434000C9434000C9434000C94340090
:100020000C9434000C9434000C9434000C94340080
:100030000C9434000C9434000C9434000C94340070
:100040000C9434000C9434000C94A0000C943400F4
:100050000C94340011241FBECFE5D4E0DEBFCDBF29
:100060000E94D1000C94E4000C9400001F920F92A7
:100070000FB60F9211242F938F939F93EF93FF93BB
:100080002FE986E891E0215080409040E1F700C0E0
:1000900000009BB38AE021E01BBAE7EAF1E6319762
:1000A000F1F700C000002BBBE7EAF1E63197F1F76A
:1000B00000C00000815081F79BBBFF91EF919F91A1
:1000C0008F912F910F900FBE0F901F9018951F9238
:1000D0000F920FB60F9211242F933F934F935F937C
:1000E0008F939F932FE936E841E021503040404004
:1000F000E1F700C000009BB38AE028E01BBA5FE58F
:100100003AEE40E0515030404040E1F700C000007E
:100110002BBB5FE53AEE40E0515030404040E1F704
:1001200000C00000815051F79BBB9F918F915F9160
:100130004F913F912F910F900FBE0F901F901895E8
:100140001F920F920FB60F9211242F938F939F93AC
:10015000EF93FF932FE986E891E021508040904093
:10016000E1F700C000009BB38AE029E01BBAE7EA90
:10017000F1E63197F1F700C000002BBBE7EAF1E6AA
:100180003197F1F700C00000815081F79BBBFF91D0
:10019000EF919F918F912F910F900FBE0F901F9015
:1001A000189590E391BB80E487BB92BB90E298BB2B
:1001B0009FEF9ABB1BBA90EE9BBF9AE095BF84BF9E
:0C01C00078948FEF8BBBFECFF894FFCF3C
:00000001FF
